{
  "contractName": "EventManager",
  "abi": [
    {
      "inputs": [
        {
          "internalType": "uint256",
          "name": "_tiketPrice",
          "type": "uint256"
        }
      ],
      "stateMutability": "nonpayable",
      "type": "constructor"
    },
    {
      "anonymous": false,
      "inputs": [
        {
          "indexed": false,
          "internalType": "bytes",
          "name": "name",
          "type": "bytes"
        },
        {
          "indexed": false,
          "internalType": "uint256",
          "name": "price",
          "type": "uint256"
        },
        {
          "indexed": false,
          "internalType": "uint256",
          "name": "maxCapacity",
          "type": "uint256"
        }
      ],
      "name": "addedTikets",
      "type": "event"
    },
    {
      "anonymous": false,
      "inputs": [
        {
          "indexed": false,
          "internalType": "enum EventFactory.EventState",
          "name": "newState",
          "type": "uint8"
        },
        {
          "indexed": false,
          "internalType": "bytes",
          "name": "name",
          "type": "bytes"
        }
      ],
      "name": "eventChangedState",
      "type": "event"
    },
    {
      "anonymous": false,
      "inputs": [
        {
          "indexed": false,
          "internalType": "bytes",
          "name": "name",
          "type": "bytes"
        },
        {
          "indexed": false,
          "internalType": "address",
          "name": "speaker",
          "type": "address"
        }
      ],
      "name": "eventCreated",
      "type": "event"
    },
    {
      "anonymous": false,
      "inputs": [
        {
          "indexed": false,
          "internalType": "address",
          "name": "owner",
          "type": "address"
        }
      ],
      "name": "eventInit",
      "type": "event"
    },
    {
      "anonymous": false,
      "inputs": [
        {
          "indexed": false,
          "internalType": "uint256",
          "name": "tiketId",
          "type": "uint256"
        },
        {
          "indexed": false,
          "internalType": "address",
          "name": "viewer",
          "type": "address"
        }
      ],
      "name": "tiketConsumed",
      "type": "event"
    },
    {
      "anonymous": false,
      "inputs": [
        {
          "indexed": false,
          "internalType": "uint256",
          "name": "tiketId",
          "type": "uint256"
        },
        {
          "indexed": false,
          "internalType": "address",
          "name": "viewer",
          "type": "address"
        }
      ],
      "name": "tiketLocked",
      "type": "event"
    },
    {
      "anonymous": false,
      "inputs": [
        {
          "indexed": false,
          "internalType": "uint256",
          "name": "tiketId",
          "type": "uint256"
        },
        {
          "indexed": false,
          "internalType": "address",
          "name": "buyer",
          "type": "address"
        }
      ],
      "name": "tiketSold",
      "type": "event"
    },
    {
      "inputs": [
        {
          "internalType": "bytes",
          "name": "_name",
          "type": "bytes"
        },
        {
          "internalType": "address",
          "name": "_speaker",
          "type": "address"
        }
      ],
      "name": "createEvent",
      "outputs": [],
      "stateMutability": "nonpayable",
      "type": "function"
    },
    {
      "inputs": [],
      "name": "showUp",
      "outputs": [],
      "stateMutability": "nonpayable",
      "type": "function"
    },
    {
      "inputs": [],
      "name": "buyTiket",
      "outputs": [],
      "stateMutability": "payable",
      "type": "function"
    },
    {
      "inputs": [
        {
          "internalType": "uint256",
          "name": "tiketId",
          "type": "uint256"
        },
        {
          "internalType": "address",
          "name": "viewer",
          "type": "address"
        }
      ],
      "name": "consumeTiket",
      "outputs": [],
      "stateMutability": "nonpayable",
      "type": "function"
    },
    {
      "inputs": [
        {
          "internalType": "uint256",
          "name": "tiketId",
          "type": "uint256"
        }
      ],
      "name": "lockTiket",
      "outputs": [],
      "stateMutability": "nonpayable",
      "type": "function"
    },
    {
      "inputs": [],
      "name": "finalizeEvent",
      "outputs": [],
      "stateMutability": "nonpayable",
      "type": "function"
    },
    {
      "inputs": [],
      "name": "cancelEvent",
      "outputs": [],
      "stateMutability": "nonpayable",
      "type": "function"
    }
  ],
  "bytecode": "0x60806040526000600455600060055534801561001a57600080fd5b50604051610b06380380610b0683398101604081905261003991610105565b600080546001600160a01b031916331781556100549061009c565b6000546040516001600160a01b0390911681527fb955d9b46ca92c3ba7b3e98d55cabd63dcc19b67e34638490c2d84b3aef68ddd9060200160405180910390a1600555610203565b6003805482919060ff191660018360048111156100bb576100bb61011e565b02179055506003546040517f781a8fe9f4445b791f4efb15c06102b10f3315a701280f532d87fdb2820bea67916100fa9160ff90911690600190610134565b60405180910390a150565b60006020828403121561011757600080fd5b5051919050565b634e487b7160e01b600052602160045260246000fd5b60006005841061015457634e487b7160e01b600052602160045260246000fd5b83825260206040818401526000845481600182811c91508083168061017a57607f831692505b85831081141561019857634e487b7160e01b85526022600452602485fd5b60408801839052606088018180156101b757600181146101c8576101f3565b60ff198616825287820196506101f3565b60008b81526020902060005b868110156101ed578154848201529085019089016101d4565b83019750505b50949a9950505050505050505050565b6108f4806102126000396000f3fe6080604052600436106100705760003560e01c80636b5c26271161004e5780636b5c2627146100b4578063aa649ae2146100c9578063f60fdd18146100e9578063fb6c95371461010957600080fd5b8063395775c3146100755780633b05a8ac14610097578063480d0ca21461009f575b600080fd5b34801561008157600080fd5b50610095610090366004610614565b61011e565b005b6100956101e5565b3480156100ab57600080fd5b506100956102a5565b3480156100c057600080fd5b506100956102d4565b3480156100d557600080fd5b506100956100e43660046106d6565b610300565b3480156100f557600080fd5b506100956101043660046106ef565b6103ba565b34801561011557600080fd5b5061009561048c565b6000546001600160a01b0316331461013557600080fd5b6000610140816104b8565b604080518082019091528381526001600160a01b0383166020808301919091528451600191610173918391880190610549565b5060209190910151600190910180546001600160a01b0319166001600160a01b039092169190911790556101a760006104eb565b7fe3ad714d91b1fa62db340aedef53809e481d7ee07cacbb7a31f69488d48921e383836040516101d8929190610712565b60405180910390a1505050565b60016101f0816104b8565b34600554146101fe57600080fd5b60045461020c906001610778565b60048181556000918252600660209081526040808420805460ff19169055825484526007825280842080546001600160a01b03191633908117909155808552600883528185208454815460018101835591875295849020019490945591548251908152908101929092527fd2b296d2917e6e312d2e4f54810dc5b1b8f537feb756dca612cb3c308906cbbd91015b60405180910390a150565b6000546001600160a01b031633146102bc57600080fd5b60026102c7816104b8565b6102d160046104eb565b50565b6000546001600160a01b031633146102eb57600080fd5b60016102f6816104b8565b6102d160026104eb565b6000546001600160a01b0316331461031757600080fd5b6001610322816104b8565b60008281526006602052604081205460ff1660028111156103455761034561079e565b1461034f57600080fd5b6000828152600660209081526040808320805460ff1916600117905560078252918290205482518581526001600160a01b03909116918101919091527fb3a7bafe308fcd82fdb0945180119b7141d3216793d952b4cb663a60333e7a1a910160405180910390a15050565b6000546001600160a01b031633146103d157600080fd5b60016103dc816104b8565b60008381526006602052604081205460ff1660028111156103ff576103ff61079e565b1461040957600080fd5b6000838152600760205260409020546001600160a01b0383811691161461042f57600080fd5b600083815260066020526040902080546001919060ff191682800217905550604080518481526001600160a01b03841660208201527fe4022b3ef0aee4855241945f604719336386773fff9657a8c7d9f507e2acb6a091016101d8565b6000546001600160a01b031633146104a357600080fd5b60016104ae816104b8565b6102d160036104eb565b60035460ff1660048111156104cf576104cf61079e565b8160048111156104e1576104e161079e565b146102d157600080fd5b6003805482919060ff1916600183600481111561050a5761050a61079e565b02179055506003546040517f781a8fe9f4445b791f4efb15c06102b10f3315a701280f532d87fdb2820bea679161029a9160ff909116906001906107ef565b828054610555906107b4565b90600052602060002090601f01602090048101928261057757600085556105bd565b82601f1061059057805160ff19168380011785556105bd565b828001600101855582156105bd579182015b828111156105bd5782518255916020019190600101906105a2565b506105c99291506105cd565b5090565b5b808211156105c957600081556001016105ce565b634e487b7160e01b600052604160045260246000fd5b80356001600160a01b038116811461060f57600080fd5b919050565b6000806040838503121561062757600080fd5b823567ffffffffffffffff8082111561063f57600080fd5b818501915085601f83011261065357600080fd5b813581811115610665576106656105e2565b604051601f8201601f19908116603f0116810190838211818310171561068d5761068d6105e2565b816040528281528860208487010111156106a657600080fd5b8260208601602083013760006020848301015280965050505050506106cd602084016105f8565b90509250929050565b6000602082840312156106e857600080fd5b5035919050565b6000806040838503121561070257600080fd5b823591506106cd602084016105f8565b604081526000835180604084015260005b818110156107405760208187018101516060868401015201610723565b81811115610752576000606083860101525b506001600160a01b0393909316602083015250601f91909101601f191601606001919050565b6000821982111561079957634e487b7160e01b600052601160045260246000fd5b500190565b634e487b7160e01b600052602160045260246000fd5b600181811c908216806107c857607f821691505b602082108114156107e957634e487b7160e01b600052602260045260246000fd5b50919050565b60006005841061080f57634e487b7160e01b600052602160045260246000fd5b83825260206040818401526000845481600182811c91508083168061083557607f831692505b85831081141561085357634e487b7160e01b85526022600452602485fd5b60408801839052606088018180156108725760018114610883576108ae565b60ff198616825287820196506108ae565b60008b81526020902060005b868110156108a85781548482015290850190890161088f565b83019750505b50949a995050505050505050505056fea264697066735822122093fb5e6df63cb93bb08923f76789a6021b1580f99bd0c8b407af8f8331b6e5e964736f6c634300080a0033",
  "immutableReferences": {},
  "source": "// SPDX-License-Identifier: MIT\npragma solidity ^0.8.4;\n\nimport \"./EventFactory.sol\";\n\ncontract EventManager is EventFactory {\n    enum TiketStatus { Available, Consumed, Locked }\n    uint lastTiketId = 0;\n    uint tiketPrice = 0;\n    mapping (uint => TiketStatus) tiketsStatus;\n    mapping (uint => address) tiketToOwner;\n    mapping (address => uint[]) ownerToTikets;\n\n    event addedTikets(bytes name, uint256 price, uint256 maxCapacity);\n    event tiketSold(uint tiketId, address buyer);\n    event tiketConsumed(uint tiketId, address viewer);\n    event tiketLocked(uint tiketId, address viewer);\n    \n\n    constructor(uint _tiketPrice){\n        tiketPrice = _tiketPrice;\n    }\n    \n\n    function buyTiket() eventStateIs(EventState.Created) payable external {\n        require(tiketPrice == msg.value);\n        lastTiketId = lastTiketId + 1;\n        tiketsStatus[lastTiketId] = TiketStatus.Available;\n        tiketToOwner[lastTiketId] = msg.sender;\n        ownerToTikets[msg.sender].push(lastTiketId);\n        emit tiketSold(lastTiketId, msg.sender);\n    }\n\n    function consumeTiket(uint tiketId, address viewer) onlyOwner eventStateIs(EventState.Created) external {\n        require(tiketsStatus[tiketId] == TiketStatus.Available);\n        require(tiketToOwner[tiketId] == viewer);\n        tiketsStatus[tiketId] = TiketStatus.Consumed;\n        emit tiketConsumed(tiketId, viewer);\n    }\n\n    function lockTiket(uint tiketId) onlyOwner eventStateIs(EventState.Created) external {\n        require(tiketsStatus[tiketId] == TiketStatus.Available);\n        tiketsStatus[tiketId] = TiketStatus.Consumed;\n        emit tiketLocked(tiketId, tiketToOwner[tiketId]);\n    }\n    \n    function finalizeEvent() onlyOwner eventStateIs(EventState.Started) external {\n        // distribute rewards\n        changeStateEvent(EventState.Finished);\n    }\n    \n    function cancelEvent() onlyOwner eventStateIs(EventState.Created) external {\n        // distribute rewards\n        changeStateEvent(EventState.Canceled);\n    }\n    \n    modifier onlyOwnerOf(uint tiketId){\n        require(tiketToOwner[tiketId] == msg.sender, \"You are not owner of the tiket\");\n        _;\n    }\n}",
  "sourcePath": "/Users/nicolasballaman/Projects/eventStaking/contracts/EventManager.sol",
  "compiler": {
    "name": "solc",
    "version": "0.8.10+commit.fc410830.Emscripten.clang"
  },
  "schemaVersion": "3.4.3",
  "updatedAt": "2021-12-07T01:49:26.764Z",
  "devdoc": {
    "kind": "dev",
    "methods": {},
    "version": 1
  },
  "userdoc": {
    "kind": "user",
    "methods": {},
    "version": 1
  }
}