{
  "contractName": "EventFactory",
  "abi": [
    {
      "inputs": [],
      "stateMutability": "nonpayable",
      "type": "constructor"
    },
    {
      "anonymous": false,
      "inputs": [
        {
          "indexed": false,
          "internalType": "enum EventFactory.EventState",
          "name": "newState",
          "type": "uint8"
        },
        {
          "indexed": false,
          "internalType": "bytes",
          "name": "name",
          "type": "bytes"
        }
      ],
      "name": "eventChangedState",
      "type": "event"
    },
    {
      "anonymous": false,
      "inputs": [
        {
          "indexed": false,
          "internalType": "bytes",
          "name": "name",
          "type": "bytes"
        },
        {
          "indexed": false,
          "internalType": "address",
          "name": "speaker",
          "type": "address"
        }
      ],
      "name": "eventCreated",
      "type": "event"
    },
    {
      "anonymous": false,
      "inputs": [
        {
          "indexed": false,
          "internalType": "address",
          "name": "owner",
          "type": "address"
        }
      ],
      "name": "eventInit",
      "type": "event"
    },
    {
      "inputs": [
        {
          "internalType": "bytes",
          "name": "_name",
          "type": "bytes"
        },
        {
          "internalType": "address",
          "name": "_speaker",
          "type": "address"
        }
      ],
      "name": "createEvent",
      "outputs": [],
      "stateMutability": "nonpayable",
      "type": "function"
    },
    {
      "inputs": [],
      "name": "showUp",
      "outputs": [],
      "stateMutability": "nonpayable",
      "type": "function"
    }
  ],
  "bytecode": "0x608060405234801561001057600080fd5b50600080546001600160a01b0319163317815561002c90610071565b6000546040516001600160a01b0390911681527fb955d9b46ca92c3ba7b3e98d55cabd63dcc19b67e34638490c2d84b3aef68ddd9060200160405180910390a16101bf565b6003805482919060ff19166001836004811115610090576100906100da565b02179055506003546040517f781a8fe9f4445b791f4efb15c06102b10f3315a701280f532d87fdb2820bea67916100cf9160ff909116906001906100f0565b60405180910390a150565b634e487b7160e01b600052602160045260246000fd5b60006005841061011057634e487b7160e01b600052602160045260246000fd5b83825260206040818401526000845481600182811c91508083168061013657607f831692505b85831081141561015457634e487b7160e01b85526022600452602485fd5b60408801839052606088018180156101735760018114610184576101af565b60ff198616825287820196506101af565b60008b81526020902060005b868110156101a957815484820152908501908901610190565b83019750505b50949a9950505050505050505050565b610533806101ce6000396000f3fe608060405234801561001057600080fd5b50600436106100365760003560e01c8063395775c31461003b5780636b5c262714610050575b600080fd5b61004e6100493660046102b5565b610058565b005b61004e61011f565b6000546001600160a01b0316331461006f57600080fd5b600061007a8161014e565b604080518082019091528381526001600160a01b03831660208083019190915284516001916100ad9183918801906101ea565b5060209190910151600190910180546001600160a01b0319166001600160a01b039092169190911790556100e16000610181565b7fe3ad714d91b1fa62db340aedef53809e481d7ee07cacbb7a31f69488d48921e38383604051610112929190610377565b60405180910390a1505050565b6000546001600160a01b0316331461013657600080fd5b60016101418161014e565b61014b6002610181565b50565b60035460ff166004811115610165576101656103dd565b816004811115610177576101776103dd565b1461014b57600080fd5b6003805482919060ff191660018360048111156101a0576101a06103dd565b02179055506003546040517f781a8fe9f4445b791f4efb15c06102b10f3315a701280f532d87fdb2820bea67916101df9160ff9091169060019061042e565b60405180910390a150565b8280546101f6906103f3565b90600052602060002090601f016020900481019282610218576000855561025e565b82601f1061023157805160ff191683800117855561025e565b8280016001018555821561025e579182015b8281111561025e578251825591602001919060010190610243565b5061026a92915061026e565b5090565b5b8082111561026a576000815560010161026f565b634e487b7160e01b600052604160045260246000fd5b80356001600160a01b03811681146102b057600080fd5b919050565b600080604083850312156102c857600080fd5b823567ffffffffffffffff808211156102e057600080fd5b818501915085601f8301126102f457600080fd5b81358181111561030657610306610283565b604051601f8201601f19908116603f0116810190838211818310171561032e5761032e610283565b8160405282815288602084870101111561034757600080fd5b82602086016020830137600060208483010152809650505050505061036e60208401610299565b90509250929050565b604081526000835180604084015260005b818110156103a55760208187018101516060868401015201610388565b818111156103b7576000606083860101525b506001600160a01b0393909316602083015250601f91909101601f191601606001919050565b634e487b7160e01b600052602160045260246000fd5b600181811c9082168061040757607f821691505b6020821081141561042857634e487b7160e01b600052602260045260246000fd5b50919050565b60006005841061044e57634e487b7160e01b600052602160045260246000fd5b83825260206040818401526000845481600182811c91508083168061047457607f831692505b85831081141561049257634e487b7160e01b85526022600452602485fd5b60408801839052606088018180156104b157600181146104c2576104ed565b60ff198616825287820196506104ed565b60008b81526020902060005b868110156104e7578154848201529085019089016104ce565b83019750505b50949a995050505050505050505056fea26469706673582212200431bac4a5f6e8aa702fddc2a412065efec5448f2f73a472621e1c6ba79dbd2464736f6c634300080a0033",
  "immutableReferences": {},
  "source": "// SPDX-License-Identifier: MIT\npragma solidity ^0.8.4;\n\ncontract EventFactory {\n    enum EventState { Initial, Created, Started, Canceled, Finished }\n\n    struct TiketType {\n        bytes name;\n        uint256 price;\n        uint256 maxCapacity;\n        uint256 tiketsSelled;\n    }\n\n    struct Event {\n        bytes name;\n        address speaker;\n    }\n    \n    struct Tiket {\n        uint32 price;\n        uint tiketTypeId;\n    }\n\n    address eventOwner;\n    Event currentEvent;\n    EventState currentState;\n\n    \n    event eventInit(address owner);\n    event eventCreated(bytes name, address speaker);\n    event eventChangedState(EventState newState, bytes name);\n    \n\n    constructor() {\n        eventOwner = msg.sender;\n        changeStateEvent(EventState.Initial);\n        emit eventInit(eventOwner);\n    }\n\n    function createEvent(bytes memory _name, address _speaker) onlyOwner eventStateIs(EventState.Initial) external {\n        currentEvent = Event(_name, _speaker);\n        changeStateEvent(EventState.Initial);\n        emit eventCreated(_name, _speaker);\n    }\n\n    function showUp() onlyOwner eventStateIs(EventState.Created) external {\n        changeStateEvent(EventState.Started);\n    }\n\n    function changeStateEvent(EventState newState) internal {\n        currentState = newState;\n        emit eventChangedState(currentState, currentEvent.name);\n    }\n\n    function requiredState(EventState state) internal view{\n        require(state == currentState);\n    }\n\n    modifier eventStateIs(EventState state){\n        requiredState(state);\n        _;\n    }\n\n    modifier onlyOwner(){\n        require(eventOwner == msg.sender);\n        _;\n    }\n}",
  "sourcePath": "/Users/nicolasballaman/Projects/eventStaking/contracts/EventFactory.sol",
  "compiler": {
    "name": "solc",
    "version": "0.8.10+commit.fc410830.Emscripten.clang"
  },
  "schemaVersion": "3.4.3",
  "updatedAt": "2021-12-07T01:49:26.759Z",
  "devdoc": {
    "kind": "dev",
    "methods": {},
    "version": 1
  },
  "userdoc": {
    "kind": "user",
    "methods": {},
    "version": 1
  }
}